{
  "address": "0x8CE6c2B57aeB7A3026c0e42cbc44679a39220fF4",
  "abi": [
    {
      "inputs": [
        {
          "internalType": "uint256",
          "name": "",
          "type": "uint256"
        }
      ],
      "name": "colorNames",
      "outputs": [
        {
          "internalType": "string",
          "name": "",
          "type": "string"
        }
      ],
      "stateMutability": "view",
      "type": "function"
    },
    {
      "inputs": [],
      "name": "generateCharacter",
      "outputs": [
        {
          "internalType": "string",
          "name": "",
          "type": "string"
        }
      ],
      "stateMutability": "view",
      "type": "function"
    },
    {
      "inputs": [
        {
          "internalType": "uint256",
          "name": "prevEntropy",
          "type": "uint256"
        }
      ],
      "name": "generateRandomNumber",
      "outputs": [
        {
          "internalType": "uint256",
          "name": "",
          "type": "uint256"
        }
      ],
      "stateMutability": "view",
      "type": "function"
    }
  ],
  "transactionHash": "0x079877e7e7b7ef29139e4e847cf80cbdaa450286ac069713ebf7463bb313cbf2",
  "args": [],
  "numDeployments": 1,
  "solcInputHash": "dcb9e1a384f7356ccfd7c00e71716a7c",
  "bytecode": "0x60803462000308576001600160401b0390610140810182811182821017620002f2576040526200002e6200030d565b9060068083526020926523232323232360d11b848201528252620000516200030d565b8181526504646303030360d41b8482015283830152620000706200030d565b8181526503030383030360d41b848201526040830152620000906200030d565b8181526518181818232360d11b848201526060830152620000b06200030d565b8181526504646464630360d41b848201526080830152620000d06200030d565b8181526518182323232360d11b8482015260a0830152620000f06200030d565b8181526503830303030360d41b8482015260c0830152620001106200030d565b8181526503830383030360d41b8482015260e0830152620001306200030d565b8181526503830303038360d41b84820152610100830152620001516200030d565b9081526503830383038360d41b838201526101208201529160009283905b600a821062000188576040516154b790816200032e8239f35b805190815191848311620002f2578654916001928381811c91168015620002e7575b88821014620002d1578792601f9182811162000275575b508391861160011462000209576001959160009183620001fd575b5050600019600383901b1c191690841b1788555b019501910190936200016f565b015190503880620001dc565b9490601f198216958a600052846000209660005b8181106200025e57509160019791848895941062000244575b505050811b018855620001f0565b015160001960f88460031b161c1916905538808062000236565b828401518955978701978b9693840193016200021d565b90919293508960005288600020600584808901821c8301938c8a10620002c7575b918c97968993969594929601901c01915b828110620002b7575050620001c1565b600081558b9650879101620002a7565b9350829362000296565b634e487b7160e01b600052602260045260246000fd5b90607f1690620001aa565b634e487b7160e01b600052604160045260246000fd5b600080fd5b60408051919082016001600160401b03811183821017620002f25760405256fe6040608081526004908136101561001557600080fd5b600091823560e01c80634303707e146150df578063a561b7d4146100815763e8a8d6e51461004257600080fd5b3461007d57602036600319011261007d573591600a83101561007a575061006b610076926151c5565b905191829182615129565b0390f35b80fd5b8280fd5b50913461007a578060031936011261007a5781519261009f84615155565b815b6060808210156100b757858201526020016100a1565b5050928251906100c682615155565b60603683376000194301924384116150cc57600a8551946020958681019184835242898301524460608301524060808201526080815261010581615187565b51902006808452600a8110156150b95761011e906151c5565b825261012a8351615296565b9261013a85820194808652615296565b600a8110156150a65761016b9161016161015489936151c5565b9688870197885251615296565b9182910152615296565b90600a8210156150935761007661507987615089603a896150408a61503b6141228c6101968d6151c5565b90818a8201525193519089519485927f3c73766720786d6c6e733d22687474703a2f2f7777772e77332e6f72672f3230898501527f30302f737667222076657273696f6e3d22312e31222077696474683d223530308c8501527f707822206865696768743d22353030707822207374796c653d2273686170652d60608501527f72656e646572696e673a67656f6d6574726963507265636973696f6e3b20746560808501527f78742d72656e646572696e673a67656f6d6574726963507265636973696f6e3b60a08501527f20696d6167652d72656e646572696e673a6f7074696d697a655175616c69747960c08501527f3b2066696c6c2d72756c653a6576656e6f64643b20636c69702d72756c653a6560e08501527f76656e6f64642220786d6c6e733a786c696e6b3d22687474703a2f2f7777772e610100850152723b999737b93397989c9c9c97bc3634b735911f60691b6101208501528884621e339f60e91b806101338301527f3c70617468207374796c653d226f7061636974793a31222066696c6c3d22236690816101368401527f65666566652220643d224d202d302e352c2d302e352043203136362e3136372c6101568401527f2d302e35203333322e3833332c2d302e35203439392e352c2d302e35432034396101768401527f392e352c3136362e313637203439392e352c3333322e383333203439392e352c6101968401527f3439392e3543203333322e3833332c3439392e35203136362e3136372c3439396101b68401527f2e35202d302e352c3439392e3543202d302e352c3333322e383333202d302e356101d68401527f2c3136362e313637202d302e352c2d302e35205a22202f3e00000000000000006101f6840152631e17b39f60e11b958661020e850152816102128501527f3c70617468207374796c653d226f7061636974793a31222066696c6c3d222331806102158601527f32346438322220643d224d203231352e352c38302e352043203232392e3838336102358601527f2c37392e33353832203234312e3231362c38342e36393135203234392e352c396102558601527f362e3543203237302e3038382c37382e37393834203239312e3432322c37372e6102758601527f393635203331332e352c393443203331372e3230362c39382e333630392033326102958601527f302e3033392c3130332e313934203332322c3130382e3543203333322e3636336102b58601527f2c3130302e393539203334342e3439362c39382e34353931203335372e352c316102d58601527f303143203337322e3033312c3130372e353638203337372e3336352c3131382e6102f58601527f373334203337332e352c3133342e3543203338392e3230342c3133362e3639326103158601527f203339392e3730342c3134352e333538203430352c3136302e3543203430362e6103358601527f3237382c3136372e343736203430352e3131312c3137332e393736203430312e6103558601527f352c31383043203432302e3637392c3138392e313838203432372e3834362c326103758601527f30342e303231203432332c3232342e3543203431392e3838322c3232392e32386103958601527f36203431362e3338322c3233332e373836203431322e352c32333843203432326103b58601527f2e3936382c3234342e373233203432362e3830312c3235342e323233203432346103d58601527f2c3236362e3543203432322e3836312c3237302e313132203432312e3139342c6103f58601527f3237332e343436203431392c3237362e3543203431342e3938342c3238302e336104158601527f3438203431312e3135312c3238342e333438203430372e352c3238382e3543206104358601527f3431352e3737342c3239322e373134203431382e39342c3239392e33383120346104558601527f31372c3330382e3543203431352e3434352c3331342e313836203431322e39346104758601527f352c3331392e333533203430392e352c33323443203431362e3833352c3332366104958601527f2e3637203432312e3333352c3333312e383337203432332c3333392e354320346104b58601527f32352e3639392c3334392e363534203432332e3033322c3335372e39383820346104d58601527f31352c3336342e3543203431342e3938392c3336372e363539203431342e31356104f58601527f352c3337302e343933203431322e352c33373343203430352e36312c3337352e6105158601527f393434203339382e36312c3337382e363131203339312e352c333831432033366105358601527f382e3838392c3338352e3332203334362e3232322c3338392e3332203332332e6105558601527f352c33393343203331302e31352c3339332e323835203239362e3831362c33396105758601527f332e373835203238332e352c3339342e3543203238342e3131322c3430302e316105958601527f3634203238322e3434362c3430342e393938203237382e352c343039432032356105b58601527f392e3932382c3431382e323338203234302e3539352c3432302e3537322032326105d58601527f302e352c34313643203231382e3033322c3431332e353132203231352e3639396105f58601527f2c3431312e303132203231332e352c3430382e3543203230342e3139352c34306106158601527f392e363134203139342e3836322c3430392e373831203138352e352c343039436106358601527f203137342e3236392c3430362e343637203136392e3433352c3339392e3633346106558601527f203137312c3338382e3543203137332e3631382c3338332e383834203137372e6106758601527f3435312c3338302e373137203138322e352c33373943203136372e3831342c336106958601527f36342e373937203135372e3331342c3334372e393634203135312c3332382e356106b58601527f43203134382e3235352c3331332e353334203134352e3735352c3239382e35336106d58601527f34203134332e352c3238332e3543203132332e3534332c3238352e33333920316106f58601527f30342e3837362c3238312e3530362038372e352c323732432038342c3236382e6107158601527f352038302e352c3236352037372c3236312e35432037312e322c3234362e32346107358601527f352037362e303333342c3233352e3431322039312e352c323239432039342e356107558601527f2c3232382e3636372039372e352c3232382e333333203130302e352c323238436107758601527f2038342e303331362c3231302e3634392038362e303331362c3139352e3938336107958601527f203130362e352c31383443203131322e3339342c3138322e393633203131382e6107b58601527f3036312c3138332e363239203132332e352c31383643203132382e3936382c316107d58601527f39302e343637203133342e3133352c3139352e33203133392c3230302e3543206107f58601527f3134332e3730352c3136382e373431203136302e3033392c3134352e303734206108158601527f3138382c3132392e3543203138352e3233362c3130362e333532203139342e346108358601527f30332c39302e30313833203231352e352c38302e35205a22202f3e00000000006108558601528761087086015282610874860152806108778601527f33346335392220643d224d203237372e352c3131362e352043203237342e35376108978601527f2c3131352e373031203237312e35372c3131352e333638203236382e352c31316108b78601527f352e3543203236322e3136372c3131352e35203235352e3833332c3131352e356108d78601527f203234392e352c3131352e3543203235392e3638372c3131342e3534332032376108f78601527f302e3032312c3131342e303433203238302e352c31313443203237392e3136376109178601527f2c3131342e333333203237372e3833332c3131342e363637203237362e352c316109378601527f313543203237372e3035362c3131352e333833203237372e3338392c3131352e610957860152741c1c1990191b9b971a9618989b171a902d1110179f60591b6109778601528761098c860152826109908601527f3c70617468207374796c653d226f7061636974793a31222066696c6c3d2223376109938601527f38393235352220643d224d203236382e352c3131352e352043203237312e35376109b38601527f2c3131352e333638203237342e35372c3131352e373031203237372e352c31316109d38601527f362e3543203237382e3136372c3131362e35203237382e352c3131362e3833336109f38601527f203237382e352c3131372e3543203237342e39362c3131372e32343720323731610a138601527f2e3632372c3131362e353831203236382e352c3131352e35205a22202f3e0000610a3386015287610a5186015282610a5586015283610a588601527f64663030372220643d224d203234392e352c3131352e352043203235352e3833610a788601527f332c3131352e35203236322e3136372c3131352e35203236382e352c3131352e610a988601527f3543203237312e3632372c3131362e353831203237342e39362c3131372e3234610ab88601527f37203237382e352c3131372e3543203238302e3930332c3131372e3434382032610ad88601527f38332e3233362c3131372e373831203238352e352c3131382e3543203238392e610af88601527f3334312c3132302e303033203239332e3334312c3132312e333336203239372e610b188601527f352c3132322e3543203332342e3131352c3133322e363035203334352e323832610b388601527f2c3134392e363035203336312c3137332e3543203336332e3733352c3137382e610b588601527f323939203336352e3930322c3138332e323939203336372e352c3138382e3543610b788601527f203336372e3736332c3139322e333436203336392e3039372c3139352e363820610b988601527f3337312e352c3139382e3543203337332e3131372c3230312e31383920333734610bb88601527f2e3131372c3230342e313839203337342e352c3230372e3543203337352e3136610bd88601527f322c3231312e343636203337352e3439352c3231352e343636203337352e352c610bf88601527f3231392e3543203337352e3339372c3232362e333836203337362e3036342c32610c188601527f33332e303533203337372e352c3233392e3543203337372e3833332c3233392e610c388601527f35203337382e3136372c3233392e35203337382e352c3233392e354320333738610c588601527f2e352c3235352e353039203337382e3136362c3237312e353039203337372e35610c788601527f2c3238372e3543203337352e3737392c3239322e353632203337342e3737392c610c988601527f3239372e383935203337342e352c3330332e3543203337332e3833332c333037610cb88601527f2e35203337332e3136372c3331312e35203337322e352c3331352e3543203337610cd88601527f312e3833362c3331372e393738203337312e3530332c3332302e363435203337610cf88601527f312e352c3332332e3543203337312e3333372c3332372e373737203337322e30610d188601527f30332c3333312e373737203337332e352c3333352e3543203337342e3634332c610d388601527f3334332e363136203337382e33312c3335302e3435203338342e352c33353643610d588601527f203339312e3731342c3335392e323931203339382e3731342c3336322e393538610d788601527f203430352e352c33363743203339342e3838332c3337312e39203338332e3838610d988601527f332c3337352e303637203337322e352c3337362e3543203336322e3734312c33610db88601527f37372e363931203335332e3037342c3337392e333537203334332e352c333831610dd88601527f2e3543203334302e3530352c3338312e323934203333372e3833382c3338312e610df88601527f3936203333352e352c3338332e3543203333332e3833332c3338332e35203333610e188601527f322e3136372c3338332e35203333302e352c3338332e3543203330382e383633610e388601527f2c3338352e303133203238372e3139362c3338362e333437203236352e352c33610e588601527f38372e3543203235382e3438392c3338372e323934203235312e3438392c3338610e788601527f362e393631203234342e352c3338362e3543203233302e3733362c3338352e36610e988601527f3337203231372e3036392c3338332e393731203230332e352c3338312e354320610eb88601527f3230312e3936372c3337392e373535203139392e3936372c3337382e37353520610ed88601527f3139372e352c3337382e3543203139312e3337322c3337352e38383720313836610ef88601527f2e3230352c3337312e383837203138322c3336362e3543203137322e3938342c610f188601527f3335352e343934203136352e3635312c3334332e343934203136302c3333302e610f388601527f3543203135382e3436332c3332312e333134203135362e36332c3331322e3331610f588601527f34203135342e352c3330332e3543203135342e3431352c3239372e3836332031610f788601527f35332e3431352c3239322e353239203135312e352c3238372e3543203135312e610f988601527f38312c3238342e323837203135312e3437372c3238312e323837203135302e35610fb88601527f2c3237382e3543203135302e3139362c3237372e3835203134392e3836332c32610fd88601527f37372e313833203134392e352c3237362e3543203133382e34372c3237352e37610ff88601527f39203132372e34372c3237352e313234203131362e352c3237342e35432031306110188601527f382e3534382c3237322e373032203130302e3838312c3236392e3836392039336110388601527f2e352c323636432039302c3236322e352038362e352c3235392038332c3235356110588601527f2e35432038312e373336322c3234382e3038352038342e323336322c3234322e6110788601527f3235312039302e352c323338432039312e373933322c3233372e35312039332e6110988601527f313236362c3233372e3334332039342e352c3233372e35432039392e323732336110b88601527f2c3233372e353232203130332e3933392c3233382e313839203130382e352c326110d88601527f33392e3543203131322e3634322c3234302e353332203131362e3634322c32346110f88601527f312e383636203132302e352c3234332e3543203132332e3330382c3234352e346111188601527f3339203132362e3330382c3234372e323732203132392e352c323439432031336111388601527f362e3236332c3235302e313931203134322e3932392c3235312e3639312031346111588601527f392e352c3235332e3543203135312e3130322c3235352e303734203135332e316111788601527f30322c3235352e373431203135352e352c3235352e3543203135392e3531342c6111988601527f3235352e363636203136332e3531342c3235352e343939203136372e352c32356111b88601527f3543203136392e3634382c3235322e393235203136392e3938322c3235302e356111d88601527f3932203136382e352c32343843203135392e3938312c3234372e3936352031356111f88601527f312e3634382c3234362e373938203134332e352c3234342e3543203133392e386112188601527f31382c3234322e323336203133352e3831382c3234302e3537203133312e352c6112388601527f3233392e3543203131372e3039362c3233332e353937203130352e3932392c326112588601527f32332e39332039382c3231302e35432039372e333333332c3230372e352039376112788601527f2e333333332c3230342e352039382c3230312e3543203130312e3230312c31396112988601527f372e393634203130342e3730312c3139342e373937203130382e352c313932436112b88601527f203131312e352c3139312e333333203131342e352c3139312e333333203131376112d88601527f2e352c31393243203132342e3830332c3139382e333032203133312e3830332c6112f88601527f3230342e393638203133382e352c32313243203134312e3734322c3231322e396113188601527f3836203134342e3430382c3231322e313532203134362e352c3230392e3543206113388601527f3134372e3438372c3230362e323332203134372e38322c3230322e38393820316113588601527f34372e352c3139392e3543203134392e31332c3139352e303839203135302e316113788601527f332c3139302e343232203135302e352c3138352e3543203135382e3930352c316113988601527f36322e323536203137342e3233382c3134352e303839203139362e352c3133346113b88601527f43203231332e3033392c3132342e373634203233302e3730352c3131382e35396113d8860152721b90191a1c971a9618989a971a902d1110179f60691b6113f88601528761140b8601528261140f8601527f3c70617468207374796c653d226f7061636974793a31222066696c6c3d2223346114128601527f64373235342220643d224d203238352e352c3131382e352043203239302e31356114328601527f312c3131382e343934203239342e3135312c3131392e383237203239372e352c6114528601527f3132322e3543203239332e3334312c3132312e333336203238392e3334312c316114728601527f32302e303033203238352e352c3131382e35205a22202f3e0000000000000000611492860152876114aa860152826114ae8601527f3c70617468207374796c653d226f7061636974793a31222066696c6c3d22233293846114b18701527f64353636362220643d224d203138372e352c3137382e352043203138322e32346114d18701527f312c3137382e303136203137372e3234312c3137382e363833203137322e352c6114f18701527f3138302e3543203137362e3931312c3137342e373734203138312e3931312c316115118701527f37342e313037203138372e352c3137382e35205a22202f3e0000000000000000611531870152886115498701528361154d870152816115508701527f31346438302220643d224d203138372e352c3137382e352043203138392e30316115708701527f372c3137382e353131203139302e3138342c3137392e313737203139312c31386115908701527f302e3543203139352e3331392c3138382e343233203139342e3135332c3139356115b08701527f2e323536203138372e352c32303143203137362e3533362c3230332e323039206115d08701527f3137302e3533362c3139382e373039203136392e352c3138372e3543203136396115f08701527f2e3139332c3138342e353132203137302e3139332c3138322e313739203137326116108701527f2e352c3138302e3543203137372e3234312c3137382e363833203138322e32346116308701527f312c3137382e303136203138372e352c3137382e35205a22202f3e00000000006116508701528861166b8701528361166f870152887f3c70617468207374796c653d226f7061636974793a31222066696c6c3d22236291826116728901527f37633334622220643d224d203135302e352c3138352e352043203135302e31336116928901527f2c3139302e343232203134392e31332c3139352e303839203134372e352c31396116b28901527f392e3543203134372e3034342c3139342e343034203134382e3034342c3138396116d289015275171b999c10189a98171a96189c1a971a902d1110179f60511b6116f2890152816117088901528561170c8901528261170f8901527f62633535312220643d224d203336372e352c3138382e352043203336382e313161172f8901527f372c3138382e363131203336382e3631372c3138382e393434203336392c313861174f8901527f392e3543203337302e3133312c3139322e343435203337302e3936342c31393561176f8901527f2e343435203337312e352c3139382e3543203336392e3039372c3139352e363861178f8901527f203336372e3736332c3139322e333436203336372e352c3138382e35205a22206117af8901528861179f60f11b9a8b6117cf8b0152836117d18b0152876117d58b0152886117d88b01527f37353337342220643d224d203236332e352c3231322e352043203235382e38386117f88b01527f322c3231312e373631203235352e3534392c3231332e343237203235332e352c6118188b01527f3231372e3543203235342e3935322c3231392e393739203235342e3435322c326118388b01527f32312e393739203235322c3232332e3543203235312e352c3232332e313637206118588b01527f3235312c3232322e383333203235302e352c3232322e3543203235322e30352c6118788b01527f3231382e383238203235312e35352c3231382e313631203234392c3232302e356118988b01527f43203234362e3936332c3232362e313837203234382e3739362c3232382e38356118b88b01527f34203235342e352c3232382e3543203235342e352c3232392e35203235342e356118d88b01527f2c3233302e35203235342e352c3233312e3543203235322e3733382c3233312e6118f88b01527f363433203235312e3037312c3233312e333039203234392e352c3233302e35436119188b01527f203234382e3532322c3233302e393737203234372e3638392c3233312e3634336119388b01527f203234372c3233322e3543203234372e3238382c3232392e323039203234362e6119588b01527f3738382c3232352e383735203234352e352c3232322e3543203234342e3531316119788b01527f2c3232362e313037203234342e3137372c3232392e373734203234342e352c326119988b01527f33332e3543203234312e3434352c3232372e333838203234322e3237382c32326119b88b01527f312e373231203234372c3231362e3543203235312e3333382c3231302e3139206119d88b01527f3235362e3833382c3230382e383537203236332e352c3231322e35205a22202f6119f88b0152601f60f91b611a188b015283611a198b015287611a1d8b01527f3c70617468207374796c653d226f7061636974793a31222066696c6c3d2223309485611a208c01527f39346338322220643d224d203236332e352c3231322e352043203236372e3337611a408c01527f382c3231342e353333203236392e3337382c3231372e37203236392e352c3232611a608c01527f3243203236392e3235392c3232352e323037203236382e3735392c3232382e33611a808c01527f3734203236382c3233312e3543203236372e3030342c3233332e363620323635611aa08c01527f2e3530342c3233352e333237203236332e352c3233362e3543203235382e3832611ac08c01527f312c3233362e363636203235342e3135352c3233362e343939203234392e352c611ae08c01527f32333643203235302e3731312c3233352e313037203235302e3731312c323334611b008c01527f2e323734203234392e352c3233332e3543203234372e3837322c3233342e3533611b208c01527f35203234362e3230352c3233342e353335203234342e352c3233332e35432032611b408c01527f34342e3137372c3232392e373734203234342e3531312c3232362e3130372032611b608c01527f34352e352c3232322e3543203234362e3738382c3232352e383735203234372e611b808c01527f3238382c3232392e323039203234372c3233322e3543203234372e3638392c32611ba08c01527f33312e363433203234382e3532322c3233302e393737203234392e352c323330611bc08c01527f2e3543203235312e3037312c3233312e333039203235322e3733382c3233312e611be08c01527f363433203235342e352c3233312e3543203235342e352c3233302e3520323534611c008c01527f2e352c3232392e35203235342e352c3232382e3543203234382e3739362c3232611c208c01527f382e383534203234362e3936332c3232362e313837203234392c3232302e3543611c408c01527f203235312e35352c3231382e313631203235322e30352c3231382e3832382032611c608c01527f35302e352c3232322e3543203235312c3232322e383333203235312e352c3232611c808c01527f332e313637203235322c3232332e3543203235342e3435322c3232312e393739611ca08c01527f203235342e3935322c3231392e393739203235332e352c3231372e3543203235611cc08c01527f352e3534392c3231332e343237203235382e3838322c3231312e373631203236611ce08c01526e19971a96191899171a902d1110179f60891b611d008c015284611d0f8c015288611d138c0152611d168b01527f61636135352220643d224d203337352e352c3231392e352043203337372e3033611d368b01527f392c3232352e393337203337372e3730362c3233322e363034203337372e352c611d568b01527f3233392e3543203337362e3036342c3233332e303533203337352e3339372c32611d768b01527f32362e333836203337352e352c3231392e35205a22202f3e0000000000000000611d968b015283611dae8b015287611db28b015288611db58b01527f30353135652220643d224d203337342e352c3230372e352043203337362e3239611dd58b01527f392c3231322e343239203337372e3436362c3231372e373632203337382c3232611df58b01527f332e3543203337382e3439392c3232382e383233203337382e3636362c323334611e158b01527f2e313536203337382e352c3233392e3543203337382e3136372c3233392e3520611e358b01527f3337372e3833332c3233392e35203337372e352c3233392e3543203337372e37611e558b01527f30362c3233322e363034203337372e3033392c3232352e393337203337352e35611e758b01527f2c3231392e3543203337352e3439352c3231352e343636203337352e3136322c611e958b01527f3231312e343636203337342e352c3230372e35205a22202f3e00000000000000611eb58b015283611ece8b015287611ed28b015288611ed58b01527f61353035612220643d224d203234342e352c3233332e352043203234362e3230611ef58b01527f352c3233342e353335203234372e3837322c3233342e353335203234392e352c611f158b01527f3233332e3543203235302e3731312c3233342e323734203235302e3731312c32611f358b01527f33352e313037203234392e352c32333643203235342e3135352c3233362e3439611f558b01527f39203235382e3832312c3233362e363636203236332e352c3233362e35432032611f758b01527f35392e3436392c3233382e343339203235352e3133362c3233382e3933392032611f958b01527f35302e352c32333843203234372e3839342c3233372e323038203234352e3839611fb58b01527f342c3233352e373038203234342e352c3233332e35205a22202f3e0000000000611fd58b015283611ff08b015287611ff48b01527f3c70617468207374796c653d226f7061636974793a31222066696c6c3d2223359687611ff78c01527f38373935342220643d224d2039342e352c3233372e3520432039362e393636346120178c01527f2c3233362e3336362039392e3633332c3233362e313939203130322e352c32336120378c01527f3743203130342e3937342c3233372e303337203130362e3937342c3233372e386120578c01527f37203130382e352c3233392e3543203130332e3933392c3233382e31383920396120778c01527f392e323732332c3233372e3532322039342e352c3233372e35205a22202f3e006120978c0152846120b68c0152693c672066696c6c3d222360b01b9a8b6120ba820152612970825180936120c4968785019101615106565b0161111f60f11b9c8d80948301527f3c70617468207374796c653d226f7061636974793a312220643d224d203231386120c68301527f2e352c38382e352043203233322e3135382c38382e38333932203234302e38326120e68301527f352c39352e35303539203234342e352c3130382e3543203233382e3735382c316121068301527f30392e323335203233332e3039312c3131302e343032203232372e352c3131326121268301527f43203231362e3435342c3131352e353039203230352e3738372c3131392e36376121468301527f36203139352e352c3132342e3543203139352e3130392c3130372e32363920326121668301527f30322e3737352c39352e32363934203231382e352c38382e35205a22202f3e006121868301527f3c70617468207374796c653d226f7061636974793a312220643d224d203237366121a58301527f2e352c39302e352043203238382e3837382c38392e39303333203239392e37316121c58301527f312c39332e3537203330392c3130312e3543203331332e32352c3130362e31386121e58301527f31203331342e3431372c3131312e353135203331322e352c3131372e354320336122058301527f31312e3833332c3131372e383333203331312e3136372c3131382e31363720336122258301527f31302e352c3131382e3543203239322e3339382c3131302e333731203237332e6122458301527f3339382c3130362e353337203235332e352c31303743203235382e3738322c396122658301527f382e30333835203236362e3434392c39322e35333835203237362e352c39302e612285830152661a902d1110179f60c91b6122a58301527f3c70617468207374796c653d226f7061636974793a312220643d224d203334316122ac8301527f2e352c3130382e352043203336302e3539372c3130362e343237203336382e346122cc8301527f33312c3131342e373631203336352c3133332e3543203336322e3434372c31336122ec8301527f372e313538203336312e3131342c3134312e313538203336312c3134352e354361230c8301527f203336342e36312c3134382e333831203336372e3737372c3134372e3838312061232c8301527f3337302e352c31343443203337352e3437362c3134322e393632203338302e3161234c8301527f34322c3134332e363238203338342e352c31343643203339312e3735332c313561236c8301527f312e303132203339362e3038372c3135372e383435203339372e352c3136362e61238c8301527f3543203339372e3435382c3137312e393138203339352e3239312c3137362e326123ac8301527f3531203339312c3137392e3543203339302e3333332c3138312e3136372033396123cc8301527f302e3333332c3138322e383333203339312c3138342e3543203339352e3936386123ec8301527f2c3138372e343031203430312e3133352c3138392e393031203430362e352c3161240c8301527f393243203432302e3836382c3230372e373439203431392e3730322c3232322e61242c8301527f323439203430332c3233352e3543203339382e34332c3234322e34203430302e61244c8301527f3236332c3234352e39203430382e352c32343643203431352e3036372c32353061246c8301527f2e303231203431372e3536372c3235352e383534203431362c3236332e35432061248c8301527f3431352e3735312c3236362e313737203431342e3735312c3236382e353120346124ac8301527f31332c3237302e3543203430352e3831362c3237362e353035203339392e39386124cc8301527f332c3238332e353035203339352e352c3239312e3543203339362e3530392c326124ec8301527f39342e383336203339382e3834322c3239362e333336203430322e352c32393661250c8301527f43203430352e3130322c3239362e383833203430372e3236392c3239382e333861252c8301527f33203430392c3330302e3543203430392e3631312c3330342e3638322034303861254c8301527f2e3934342c3330382e363832203430372c3331322e3543203430332e3434312c61256c8301527f3331382e303339203339392e3934312c3332332e353339203339362e352c333261258c8301527f3943203339362e3538352c3333302e313037203339362e3931392c3333312e316125ac8301527f3037203339372e352c33333243203431312e3635392c3333302e3833322034316125cc8301527f372e3439332c3333372e333332203431352c3335312e3543203431332e3639356125ec8301527f2c3335342e363338203431312e3532392c3335362e393731203430382e352c3361260c8301527f35382e3543203430322e3635322c3335352e3431203339362e3635322c33353261262c8301527f2e353737203339302e352c33353043203338302e3838332c3334302e3434372061264c8301527f3337372e3731362c3332382e393437203338312c3331352e3543203338372e3561266c8301527f37382c3237392e363139203338382e3234352c3234332e363139203338332c3261268c8301527f30372e3543203337362e3234332c3137392e3134203336312e3734332c3135356126ac8301527f2e3634203333392e352c31333743203333322e3733392c3133312e39373120336126cc8301527f32362e3037332c3132362e393731203331392e352c31323243203332312e31356126ec8301527f342c3131392e303133203332332e3438372c3131362e363739203332362e352c61270c8301527f31313543203333312e3437372c3131322e353137203333362e3437372c31313061272c8301527417199a90199a18971a9618981c171a902d1110179f60591b61274c83015285612761830152896127658301527f3c70617468207374796c653d226f7061636974793a31222066696c6c3d22233395866127688401527f35363035382220643d224d203133312e352c3233392e352043203133352e38316127888401527f382c3234302e3537203133392e3831382c3234322e323336203134332e352c326127a88401527f34342e3543203134302e3031372c3234332e323438203133362e3335312c32346127c88401527f322e343134203133322e352c32343243203133312e3734382c3234312e3332396127e88401527f203133312e3431342c3234302e343936203133312e352c3233392e35205a22206128088401528161282884015261282a8301528961282e830152846128318301527f62643136632220643d224d203236352e352c3234382e352043203236312e34386128518301527f312c3234382e363436203235372e3438312c3234382e393739203235332e352c6128718301527f3234392e3543203235332e3631312c3234382e383833203235332e3934342c326128918301527f34382e333833203235342e352c32343843203235382e3335382c3234372e31396128b18301527f203236322e3032342c3234372e333537203236352e352c3234382e35205a22206128d18301526128f18201528d6128f3820152886128f7820152866128fa8201527f38353037612220643d224d203132302e352c3234332e352043203132332e323061291a8201527f392c3234342e303133203132352e3730392c3234352e303133203132382c323461293a8201527f362e3543203132382e3934352c3234362e303935203132392e3631322c32343561295a8201527f2e343238203133302c3234342e3543203133302e37352c3234352e313236203161297a8201527f33312e3538342c3234352e363236203133322e352c32343643203133312e363961299a8201527f322c3234362e333038203133312e3032352c3234362e383038203133302e352c6129ba8201527f3234372e3543203133312e3636372c3234372e383333203133322e3833332c326129da8201527f34382e313637203133342c3234382e3543203133372e36352c3234372e3820316129fa8201527f34302e3831372c3234362e343636203134332e352c3234342e3543203135312e612a1a8201527f3634382c3234362e373938203135392e3938312c3234372e393635203136382e612a3a8201527f352c32343843203136392e3938322c3235302e353932203136392e3634382c32612a5a8201527f35322e393235203136372e352c32353543203136332e3531342c3235352e3439612a7a8201527f39203135392e3531342c3235352e363636203135352e352c3235352e35432031612a9a8201527f35332e3839382c3235332e393236203135312e3839382c3235332e3235392031612aba8201527f34392e352c3235332e3543203134322e3932392c3235312e363931203133362e612ada8201527f3236332c3235302e313931203132392e352c32343943203132362e3330382c32612afa8201527f34372e323732203132332e3330382c3234352e343339203132302e352c323433612b1a82015267171a902d1110179f60c11b612b3a8201528d612b4282015288612b468201527f3c70617468207374796c653d226f7061636974793a31222066696c6c3d222339612b498201527f38616437332220643d224d203134392e352c3235332e352043203135312e3839612b698201527f382c3235332e323539203135332e3839382c3235332e393236203135352e352c612b898201527f3235352e3543203135332e3130322c3235352e373431203135312e3130322c32612ba98201527f35352e303734203134392e352c3235332e35205a22202f3e0000000000000000612bc98201528d612be18201528a612be582015261372a82518093612bef9e8f85019101615106565b01998a01527f3c70617468207374796c653d226f7061636974793a312220643d224d20323635612bf18a01527f2e352c3234382e352043203237312e3533342c3234392e353137203237362e38612c118a01527f36372c3235322e313833203238312e352c3235362e3543203238322e36332c32612c318a01527f35372e363232203238332e3239372c3235382e393536203238332e352c323630612c518a01527f2e3543203238332e352c3236332e313637203238332e352c3236352e38333320612c718a01527f3238332e352c3236382e3543203238332e3337382c3237322e31343720323831612c918a01527f2e3731322c3237342e393831203237382e352c32373743203237362e3037352c612cb18a01527f3237382e323133203237332e3734312c3237392e333739203237312e352c3238612cd18a01527f302e3543203236342e31312c3238302e373634203235362e3737372c3238302e612cf18a01527f3433203234392e352c3237392e3543203233392e3239332c3237342e38313420612d118a01527f3233362e3239332c3236372e313438203234302e352c3235362e354320323434612d318a01527f2e3135392c3235322e383234203234382e3439332c3235302e34393120323533612d518a01527f2e352c3234392e3543203235372e3438312c3234382e393739203236312e3438612d718a01527f312c3234382e363436203236352e352c3234382e35205a22202f3e0000000000612d918a01528a612dac8a015285612db08a015280612db38a01527f31623539332220643d224d203238332e352c3236302e352043203238352e3032612dd38a01527f362c3236312e343932203238352e3639332c3236322e393932203238352e352c612df38a01527f32363543203238352e3339322c3236362e363831203238342e3732352c323637612e138a01527f2e383438203238332e352c3236382e3543203238332e352c3236352e38333320612e338a01527f3238332e352c3236332e313637203238332e352c3236302e35205a22202f3e00612e538a01528a612e728a015285612e768a015282612e798a01527f62346238612220643d224d203131362e352c3237342e352043203132372e3437612e998a01527f2c3237352e313234203133382e34372c3237352e3739203134392e352c323736612eb98a01527f2e3543203134392e3836332c3237372e313833203135302e3139362c3237372e612ed98a01527f3835203135302e352c3237382e3543203134392e3833332c3238362e35203134612ef98a01527f392e3136372c3238362e35203134382e352c3237382e3543203134312e343638612f198a01527f2c3237382e3137203133342e3436382c3237382e353033203132372e352c3237612f398a01527f392e3543203133322e3831322c3238302e343337203133382e3134362c323830612f598a01527f2e343337203134332e352c3237392e3543203134332e352c3238302e35203134612f798a01527f332e352c3238312e35203134332e352c3238322e3543203133352e3937382c32612f998a01527f38322e353639203132382e3634352c3238322e323335203132312e352c323831612fb98a01527f2e3543203132322e3332352c3238302e363134203132332e3332352c3238302e612fd98a01527f323831203132342e352c3238302e3543203132342e352c3237392e3520313234612ff98a01527f2e352c3237382e35203132342e352c3237372e3543203132322e3733382c32376130198a01527f372e333537203132312e3037312c3237372e363931203131392e352c3237382e6130398a01527f3543203131372e3534372c3237372e323339203131352e3534372c3237362e306130598a01527f3733203131332e352c32373543203131342e3434382c3237342e3531372031316130798a01527f352e3434382c3237342e333531203131362e352c3237342e35205a22202f3e006130998a01528a6130b88a0152856130bc8a01526130bf8901527f32623539322220643d224d203234392e352c3237392e352043203235362e37376130df8901527f372c3238302e3433203236342e31312c3238302e373634203237312e352c32386130ff8901527f302e3543203236342e3639372c3238322e393733203235372e3639372c32383361311f8901527f2e3134203235302e352c32383143203234392e3934342c3238302e363137203261313f8901527f34392e3631312c3238302e313137203234392e352c3237392e35205a22202f3e61315f8901528961317f89015284613183890152806131868901527f31356136642220643d224d203330302e352c3238302e352043203239392e30326131a68901527f322c3238302e323338203239372e3638392c3238302e353731203239362e352c6131c68901527f3238312e3543203239382e3238362c3239332e333232203239392e31322c33306131e68901527f352e333232203239392c3331372e3543203239392e3338332c3331362e3934346132068901527f203239392e3838332c3331362e363131203330302e352c3331362e35432033306132268901527f302e352c3332302e313637203330302e352c3332332e383333203330302e352c6132468901527f3332372e3543203239392e3533392c3332352e373335203239392e3230352c336132668901527f32332e373335203239392e352c3332312e3543203239392e32352c3332302e306132868901527f3738203239382e3431372c3331392e303738203239372c3331382e35432032396132a68901527f362e3833332c3330362e383139203239362e3333332c3239352e3135322032396132c68901527f352e352c3238332e3543203239342e3530322c3239322e313431203239342e316132e68901527f36392c3330302e383038203239342e352c3330392e3543203239342e3136372c6133068901527f3330392e35203239332e3833332c3330392e35203239332e352c3330392e35436133268901527f203239332e3333342c3330302e343934203239332e352c3239312e34393420326133468901527f39342c3238322e3543203239352e3532352c3237392e35203239372e3639322c6133668901527f3237382e383333203330302e352c3238302e35205a22202f3e000000000000006133868901528961339f890152846133a3890152816133a68901527f63346338392220643d224d203330302e352c3238302e352043203330312e38336133c68901527f332c3239322e35203330312e3833332c3330342e35203330302e352c3331362e6133e68901527f3543203239392e3838332c3331362e363131203239392e3338332c3331362e396134068901527f3434203239392c3331372e3543203239392e31322c3330352e333232203239386134268901527f2e3238362c3239332e333232203239362e352c3238312e3543203239372e36386134468901527f392c3238302e353731203239392e3032322c3238302e323338203330302e352c6134668901526a191c18171a902d1110179f60a91b61348689015289613491890152846134958901526134988801527f66363435372220643d224d203135312e352c3238372e352043203135332e34316134b88801527f352c3239322e353239203135342e3431352c3239372e383633203135342e352c6134d88801527f3330332e3543203135322e3534362c3239382e363038203135312e3534362c326134f88801527f39332e323734203135312e352c3238372e35205a22202f3e00000000000000006135188801528861353088015283613534880152826135378801527f35373735352220643d224d203337372e352c3238372e352043203337372e33386135578801527f2c3239332e323539203337362e33382c3239382e353932203337342e352c33306135778801527f332e3543203337342e3737392c3239372e383935203337352e3737392c32393261359788015275171a9b1910199b9b971a96191c1b971a902d1110179f60511b6135b7880152886135cd880152836135d18801526135d48701527f35346138652220643d224d203239392e352c3332312e352043203239382e38386135f48701527f332c3332312e363131203239382e3338332c3332312e393434203239382c33326136148701527f322e3543203239352e3031352c3331382e3738203239332e3834382c3331342e6136348701527f343437203239342e352c3330392e3543203239342e3136392c3330302e3830386136548701527f203239342e3530322c3239322e313431203239352e352c3238332e35432032396136748701527f362e3333332c3239352e313532203239362e3833332c3330362e3831392032396136948701527f372c3331382e3543203239382e3431372c3331392e303738203239392e32352c6136b48701527f3332302e303738203239392e352c3332312e35205a22202f3e000000000000006136d4870152876136ed870152826136f18701526136f48601527f61346537612220643d224d203239332e352c3330392e352043203239332e38336137148601527f332c3330392e35203239342e3136372c3330392e35203239342e352c3330392e6137348601527f3543203239332e3834382c3331342e343437203239352e3031352c3331382e376137548601527f38203239382c3332322e3543203239382e3338332c3332312e393434203239386137748601527f2e3838332c3332312e363131203239392e352c3332312e3543203239392e32306137948601527f352c3332332e373335203239392e3533392c3332352e373335203330302e352c6137b48601527f3332372e3543203330342e3832312c3334302e373933203331302e3938382c336137d48601527f34312e373933203331392c3333302e3543203332322e3234362c3332312e30396137f48601527f37203332332e3234362c3331312e3433203332322c3330312e3543203332312e6138148601527f32332c3239382e373934203332302e3036332c3239362e323934203331382e356138348601527f2c32393443203331392e3134382c3239322e3536203331392e3438312c3239316138548601527f2e3036203331392e352c3238392e3543203332342e3034382c3238392e3139396138748601527f203332372e3231352c3239312e313939203332392c3239352e3543203333312e6138948601527f3137382c3330372e323431203333302e3834352c3331382e393038203332382c6138b48601527f3333302e3543203332342e3835392c3333372e333035203332302e3032362c336138d48601527f34322e343732203331332e352c33343643203330322e3433392c3334362e36326138f48601527f33203239352e3630352c3334312e343536203239332c3333302e3543203239326139148601527f2e3332352c3332332e343732203239322e3439322c3331362e343732203239336139348601526d171a9619981c971a902d1110179f60911b6139548601528661396286015281613966860152806139698601527f30373936322220643d224d203337322e352c3331352e352043203337322e33396139898601527f312c3332322e313936203337322e3732342c3332382e383633203337332e352c6139a98601527f3333352e3543203337322e3030332c3333312e373737203337312e3333372c336139c98601527f32372e373737203337312e352c3332332e3543203337312e3530332c3332302e6139e98601527f363435203337312e3833362c3331372e393738203337322e352c3331352e3520613a09860152642d1110179f60d91b613a2986015286613a2e86015281613a32860152613a358501527f31373834662220643d224d203139372e352c3337382e352043203139392e3936613a558501527f372c3337382e373535203230312e3936372c3337392e373535203230332e352c613a758501527f3338312e3543203230312e3033332c3338312e323435203139392e3033332c33613a958501527f38302e323435203139372e352c3337382e35205a22202f3e0000000000000000613ab585015285613acd85015280613ad185015281613ad48501527f63353736322220643d224d203337322e352c3337362e352043203336392e3435613af48501527f342c3337372e393837203336362e3132312c3337382e393837203336322e352c613b148501527f3337392e3543203336332e352c3338302e313637203336342e352c3338302e38613b348501527f3333203336352e352c3338312e3543203336342e3833332c3338312e38333320613b548501527f3336342e3136372c3338322e313637203336332e352c3338322e354320333539613b748501527f2e3833382c3338302e313531203335362e3137312c3337392e39383420333532613b948501527f2e352c33383243203335332e3833332c3338322e333333203335352e3136372c613bb48501527f3338322e363637203335362e352c33383343203335322e3139352c3338322e39613bd48501527f3233203334372e3836322c3338322e373536203334332e352c3338322e354320613bf48501527f3334332e352c3338322e313637203334332e352c3338312e383333203334332e613c148501527f352c3338312e3543203335332e3037342c3337392e333537203336322e373431613c348501527f2c3337372e363931203337322e352c3337362e35205a22202f3e000000000000613c5485015285613c6e85015280613c728501527f3c70617468207374796c653d226f7061636974793a31222066696c6c3d222336613c758501527f64383233632220643d224d203334332e352c3338312e352043203334332e352c613c958501527f3338312e383333203334332e352c3338322e313637203334332e352c3338322e613cb58501527f3543203334302e3837332c3338332e303932203333382e3230362c3338332e34613cd58501527f3235203333352e352c3338332e3543203333372e3833382c3338312e39362033613cf58501527f34302e3530352c3338312e323934203334332e352c3338312e35205a22202f3e613d1585015285613d35850152613d39840152613d3c8301527f36353335342220643d224d203333302e352c3338332e352043203333302e3338613d5c8301527f392c3338342e313137203333302e3035362c3338342e363137203332392e352c613d7c8301527f33383543203332372e352c3338352e333333203332352e352c3338352e363637613d9c8301527f203332332e352c33383643203331302e3131312c3338362e303735203239362e613dbc8301527f3737382c3338362e373432203238332e352c33383843203237322e352c333838613ddc8301527f2e363637203236312e352c3338382e363637203235302e352c33383843203234613dfc8301527f382e3239322c3338372e383039203234362e3239322c3338372e333039203234613e1c8301527f342e352c3338362e3543203235312e3438392c3338362e393631203235382e34613e3c8301527f38392c3338372e323934203236352e352c3338372e3543203238372e3139362c613e5c8301527f3338362e333437203330382e3836332c3338352e303133203333302e352c3338613e7c8301526819971a902d1110179f60b91b613e9c83015283613ea5830152613ea9820152835190614d1c82613eb3968d8885019101615106565b01928301527f3c70617468207374796c653d226f7061636974793a312220643d224d20313835613eb58301527f2e352c3338362e352043203138382e38352c3338362e333335203139322e3138613ed58301527f332c3338362e353032203139352e352c33383743203230332e3934322c333839613ef58301527f2e393434203231322e3630382c3339312e393434203232312e352c3339334320613f158301527f3231392e30352c3339362e313236203231362e30352c3339382e343539203231613f358301527f322e352c34303043203230322e3337352c3430322e333236203139322e333735613f558301527f2c3430312e393932203138322e352c33393943203137392e3239312c3339372e613f758301527f343137203137382e3132342c3339342e393137203137392c3339312e35432031613f958301527f38302e3830352c3338392e313734203138322e3937322c3338372e3530382031613fb58301526f1c1a971a96199c1b171a902d1110179f60811b613fd58301527f3c70617468207374796c653d226f7061636974793a312220643d224d20323431613fe58301527f2e352c3339342e352043203235322e3135362c3339352e313131203236322e386140058301527f32332c3339352e363131203237332e352c33393643203237342e3938322c33396140258301527f382e353932203237342e3634382c3430302e393235203237322e352c343033436140458301527f203235382e3030332c3430382e37203234332e3030332c3431312e30333420326140658301527f32372e352c34313043203232332e3735362c3430382e323439203232322e37356140858301527f362c3430352e343135203232342e352c3430312e3543203232392e3336322c336140a58301527f39392e373932203233342e3336322c3339382e323932203233392e352c3339376140c58301527f43203234302e3338312c3339362e323932203234312e3034372c3339352e34356140e5830152721c10191a18971a96199c9a171a902d1110179f60691b614105830152614118820152651e17b9bb339f60d11b61411c820152036141028101845201826151a3565b615309565b845195827f646174613a696d6167652f7376672b786d6c3b6261736536342c000000000000889485015282519283918686019101615106565b810103601a8101855201836151a3565b5191829182615129565b634e487b7160e01b815260328752602490fd5b634e487b7160e01b835260328852602483fd5b634e487b7160e01b825260328752602482fd5b634e487b7160e01b815260118652602490fd5b50913461007a57602036600319011261007a57506150ff60209235615296565b9051908152f35b60005b8381106151195750506000910152565b8181015183820152602001615109565b604091602082526151498151809281602086015260208686019101615106565b601f01601f1916010190565b6060810190811067ffffffffffffffff82111761517157604052565b634e487b7160e01b600052604160045260246000fd5b60a0810190811067ffffffffffffffff82111761517157604052565b90601f8019910116810190811067ffffffffffffffff82111761517157604052565b90604051906000835490600182811c9080841696871561528c575b602094858410891461527857879884899798995290816000146152565750600114615217575b505050615215925003836151a3565b565b600090815285812095935091905b81831061523e5750506152159350820101388080615206565b85548884018501529485019487945091830191615225565b9250505061521594925060ff191682840152151560051b820101388080615206565b634e487b7160e01b85526022600452602485fd5b91607f16916151e0565b6000194301904382116152d757600a916040519060208201928352426040830152446060830152406080820152608081526152d081615187565b5190200690565b634e487b7160e01b600052601160045260246000fd5b67ffffffffffffffff811161517157601f01601f191660200190565b80511561545c5760405161531c81615155565b604081527f4142434445464748494a4b4c4d4e4f505152535455565758595a61626364656660208201527f6768696a6b6c6d6e6f707172737475767778797a303132333435363738392b2f604082015281516002928382018092116152d75760039182900480851b94906001600160fe1b038116036152d757926153b86153a2866152ed565b956153b060405197886151a3565b8087526152ed565b6020860190601f190136823793829183518401925b83811061540b57505050505106806001146153f8576002146153ed575090565b603d90600019015390565b50603d9081600019820153600119015390565b85600491979293949701918251600190603f9082828260121c16880101518453828282600c1c16880101518385015382828260061c16880101518885015316850101518782015301959291906153cd565b506040516020810181811067ffffffffffffffff82111761517157604052600081529056fea2646970667358221220ef21ed1b0ca4aa82f8c89841084c9bf9fbd0c9a61c6ce688b43bf9b086718ab964736f6c63430008140033",
  "devdoc": {
    "kind": "dev",
    "methods": {},
    "version": 1
  },
  "userdoc": {
    "kind": "user",
    "methods": {},
    "version": 1
  },
  "storageLayout": {
    "storage": [
      {
        "astId": 4241,
        "contract": "contracts/Character1.sol:Character1",
        "label": "colorNames",
        "offset": 0,
        "slot": "0",
        "type": "t_array(t_string_storage)10_storage"
      }
    ],
    "types": {
      "t_array(t_string_storage)10_storage": {
        "base": "t_string_storage",
        "encoding": "inplace",
        "label": "string[10]",
        "numberOfBytes": "320"
      },
      "t_string_storage": {
        "encoding": "bytes",
        "label": "string",
        "numberOfBytes": "32"
      }
    }
  }
}