{
  "address": "0x088aCBf8115d60ed56CBb30328E4dFd5953fAad4",
  "abi": [
    {
      "inputs": [],
      "name": "generateCharacter",
      "outputs": [
        {
          "internalType": "string",
          "name": "",
          "type": "string"
        }
      ],
      "stateMutability": "pure",
      "type": "function"
    }
  ],
  "transactionHash": "0x1e7d468c6208189c4f8cf1c445019fbbf4434fda2f4dc3254b25ffab148ddf2f",
  "args": [],
  "numDeployments": 1,
  "solcInputHash": "f45dd41e84f4afefd94f122399e1cf6b",
  "bytecode": "0x6080806040523461001657610ac9908161001c8239f35b600080fdfe6080600436101561000f57600080fd5b6000803560e01c63a561b7d41461002557600080fd5b3461087a578060031936011261087a577f3c73766720786d6c6e733a7264663d22687474703a2f2f7777772e77332e6f7260208301527f672f313939392f30322f32322d7264662d73796e7461782d6e73232220786d6c6040808401919091527f6e733d22687474703a2f2f7777772e77332e6f72672f323030302f737667222060608401527f786d6c6e733a63633d22687474703a2f2f7765622e7265736f757263652e6f7260808401527f672f63632f2220786d6c6e733a786c696e6b3d22687474703a2f2f7777772e7760a08401527f332e6f72672f313939392f786c696e6b2220786d6c6e733a64633d226874747060c08401527f3a2f2f7075726c2e6f72672f64632f656c656d656e74732f312e312f2220786d60e08401527f6c6e733a7376673d22687474703a2f2f7777772e77332e6f72672f323030302f6101008401527f737667222069643d2273766735313033222076696577426f783d2230203020326101208401527f31352e3431203239322e3731222076657273696f6e3d22312e30223e000000006101408401527f3c672069643d226c617965723122207472616e73666f726d3d227472616e736c61015c8401527330ba3294169919971a1016999c971b1b1c94911f60611b61017c8401527f3c672069643d22673831343622207472616e73666f726d3d226d6174726978286101908401527f2e373531303220302030202e3735313032202d342e35303337202d31302e37366101b0840152631b14911f60e11b6101d08401527f3c672069643d226738313532222066696c6c2d72756c653d226576656e6f64646101d48401527f22207472616e73666f726d3d226d6174726978282e373530353220302030202e6101f48401527f3735303532202d3231362e3134202d3331312e323129223e00000000000000006102148401527f3c706174682069643d22706174683231363722207374726f6b652d6c696e656a61022c8401527f6f696e3d22726f756e642220643d226d3731372e3134203832332e3863312e3161024c8401527f32203130352e39362d36382e3136203139372e312d3138342e3239203139372e61026c8401527f312d3131362e313220302d3139332e36322d36302e30362d3139322e38352d3261028c8401527f30352e363720302e37352d3134352e39342039362e37372d3330362e343720316102ac8401527f38342e32382d3330382e35372039332e33352d322e3331203139312e313920316102cc8401527f35352e3932203139322e3836203331372e31347a22207374726f6b653d2223306102ec8401527f303022207374726f6b652d6c696e656361703d22726f756e6422207374726f6b61030c8401527f652d77696474683d2235222066696c6c3d2223666666616431222f3e0000000061032c8401527f3c706174682069643d2270617468333133392220643d226d3635312e323820366103488401527f32342e3036632d352e383320312e33312d322e343220392e32392d302e3639206103688401527f31332032332e36332036352e3138203334203133372e3037203231203230352e6103888401527f39382d31342e33392036332e342d36302e3838203132302e37312d3132332e366103a88401527f203134302e38312d32362e323220392e312d35342e33322031312e312d38312e6103c88401527f38372031312e30342d342e343720312e38322d322e353420372e373120312e376103e88401527f3620382e32312035342e31362031352e33203131362e31352031322e342031366104088401527f342e322d31392034372e36382d33312e372037342e34342d38382e38392037356104288401527f2e352d3134352e343120322e362d35372e39332d31302e38382d3131352e34346104488401527f2d33312e36322d3136392e322d362e33372d31352e34392d31322e39382d33316104688401527f2e31332d32322e35352d34342e39332d302e35392d302e34392d312e33392d306104888401527f2e36372d322e31332d302e357a222066696c6c3d2223383037623030222066696104a884015274363616b7b830b1b4ba3c9e9117191a981c9c11179f60591b6104c88401527f3c706174682069643d22706174683432353722207374726f6b652d6c696e656a6104dd8401527f6f696e3d22726f756e642220643d226d3439322e3436203632312e3435632d356104fd8401527f2e36382032332e30332d382e33362033312e32352d32362e34332033342e333461051d8401527f2d31322e343620322e31332d32352e30312d392e36372d32302e37332d33322e61053d8401527f393220332e34342d31382e36342031372e36322d33372e34362033332e35382d61055d8401527f34302e30362031372e362d322e38352031382e31382032302e30322031332e3561057d8401527f382033382e36347a222066696c6c2d6f7061636974793d222e3439383034222061059d8401527f7374726f6b653d222330303022207374726f6b652d6c696e656361703d22726f6105bd8401527f756e6422207374726f6b652d77696474683d2232222066696c6c3d22236666666105dd8401526211179f60e91b6105fd840152631e17b39f60e11b61060084018190526106048401819052610608840152651e17b9bb339f60d11b61060c8401526105f283529061062083019067ffffffffffffffff8211848310176108665750610858926107e99183526108f4565b81519061083d603a8360208101937f646174613a696d6167652f7376672b786d6c3b6261736536342c000000000000855261082d815180926020868601910161087d565b810103601a8101855201836108a0565b8251938492602084525180928160208601528585019061087d565b601f01601f19168101030190f35b634e487b7160e01b81526041600452602490fd5b80fd5b60005b8381106108905750506000910152565b8181015183820152602001610880565b90601f8019910116810190811067ffffffffffffffff8211176108c257604052565b634e487b7160e01b600052604160045260246000fd5b67ffffffffffffffff81116108c257601f01601f191660200190565b805115610a6e576040516060810181811067ffffffffffffffff8211176108c257604052604081527f4142434445464748494a4b4c4d4e4f505152535455565758595a61626364656660208201527f6768696a6b6c6d6e6f707172737475767778797a303132333435363738392b2f60408201528151600292838201809211610a585760039182900480851b94906001600160fe1b03811603610a5857926109b461099e866108d8565b956109ac60405197886108a0565b8087526108d8565b6020860190601f190136823793829183518401925b838110610a0757505050505106806001146109f4576002146109e9575090565b603d90600019015390565b50603d9081600019820153600119015390565b85600491979293949701918251600190603f9082828260121c16880101518453828282600c1c16880101518385015382828260061c16880101518885015316850101518782015301959291906109c9565b634e487b7160e01b600052601160045260246000fd5b506040516020810181811067ffffffffffffffff8211176108c257604052600081529056fea26469706673582212201835eae2f2a9aa88fce122a24f23e5f0774d553f307bf49934643c6c2c28a03264736f6c63430008140033",
  "devdoc": {
    "kind": "dev",
    "methods": {},
    "version": 1
  },
  "userdoc": {
    "kind": "user",
    "methods": {},
    "version": 1
  },
  "storageLayout": {
    "storage": [],
    "types": null
  }
}